S01100006C65646D61747269782E7372656349
S11300000C9434000C9449000C9449000C9449005D
S11300100C9449000C9449000C9449000C94490038
S11300200C9449000C9449000C9449000C94490028
S11300300C9449000C9449000C9449000C94490018
S11300400C9449000C9449000C9449000C94490008
S11300500C9449000C9449000C9449000C944900F8
S11300600C9449000C94490011241FBECFEFD8E032
S1130070DEBFCDBF11E0A0E0B1E0E8E0F1E002C0F6
S113008005900D92AA30B107D9F70E944B000C9449
S113009082000C940000CF93DF93CDB7DEB72A978C
S11300A00FB6F894DEBF0FBECDBF8FE384B98FE1E6
S11300B087B915B818B885E0E0E0F1E0DE011196E3
S11300C001900D928A95E1F785E0E5E0F1E0DE012B
S11300D0169601900D928A95E1F79E01255F3F4F98
S11300E0FE013696DE011196819185B98D9188B90C
S11300F08FE99FE00197F1F700C00000E217F307D2
S10B010099F7EECFF894FFCF4C
S10D0108FEFDFBF7EF04223F200088
S9030000FC
